{
  "_format": "hh-sol-artifact-1",
  "contractName": "WavePortal",
  "sourceName": "contracts/WavePortal.sol",
  "abi": [
    {
      "inputs": [],
      "name": "getTotalWaves",
      "outputs": [
        {
          "internalType": "uint256",
          "name": "",
          "type": "uint256"
        }
      ],
      "stateMutability": "view",
      "type": "function"
    },
    {
      "inputs": [],
      "name": "waves",
      "outputs": [],
      "stateMutability": "nonpayable",
      "type": "function"
    }
  ],
  "bytecode": "0x608060405234801561001057600080fd5b50610467806100206000396000f3fe608060405234801561001057600080fd5b50600436106100365760003560e01c8063875d50121461003b5780639a2cdc0814610045575b600080fd5b610043610063565b005b61004d6100bd565b60405161005a9190610282565b60405180910390f35b600160008082825461007591906102cc565b925050819055506100bb6040518060400160405280600d81526020017f257320686173207761766564210000000000000000000000000000000000000081525033610108565b565b60006101006040518060400160405280601c81526020017f796f752068617665206120746f74616c206f66202564207761766573000000008152506000546101a4565b600054905090565b6101a0828260405160240161011e9291906103d1565b6040516020818303038152906040527f319af333000000000000000000000000000000000000000000000000000000007bffffffffffffffffffffffffffffffffffffffffffffffffffffffff19166020820180517bffffffffffffffffffffffffffffffffffffffffffffffffffffffff8381831617835250505050610240565b5050565b61023c82826040516024016101ba929190610401565b6040516020818303038152906040527fb60e72cc000000000000000000000000000000000000000000000000000000007bffffffffffffffffffffffffffffffffffffffffffffffffffffffff19166020820180517bffffffffffffffffffffffffffffffffffffffffffffffffffffffff8381831617835250505050610240565b5050565b60008151905060006a636f6e736f6c652e6c6f679050602083016000808483855afa5050505050565b6000819050919050565b61027c81610269565b82525050565b60006020820190506102976000830184610273565b92915050565b7f4e487b7100000000000000000000000000000000000000000000000000000000600052601160045260246000fd5b60006102d782610269565b91506102e283610269565b92508282019050808211156102fa576102f961029d565b5b92915050565b600081519050919050565b600082825260208201905092915050565b60005b8381101561033a57808201518184015260208101905061031f565b60008484015250505050565b6000601f19601f8301169050919050565b600061036282610300565b61036c818561030b565b935061037c81856020860161031c565b61038581610346565b840191505092915050565b600073ffffffffffffffffffffffffffffffffffffffff82169050919050565b60006103bb82610390565b9050919050565b6103cb816103b0565b82525050565b600060408201905081810360008301526103eb8185610357565b90506103fa60208301846103c2565b9392505050565b6000604082019050818103600083015261041b8185610357565b905061042a6020830184610273565b939250505056fea26469706673582212201fd72e4fa186efdea3f5b7accf2d08796f910f9289aa81f95c5d4b3c0ce272c164736f6c63430008110033",
  "linkReferences": {},
  "deployedLinkReferences": {}
}