{
  "_format": "hh-sol-artifact-1",
  "contractName": "WavePortal",
  "sourceName": "contracts/WavePortal.sol",
  "abi": [
    {
      "anonymous": false,
      "inputs": [
        {
          "indexed": true,
          "internalType": "address",
          "name": "from",
          "type": "address"
        },
        {
          "indexed": false,
          "internalType": "uint256",
          "name": "timestamp",
          "type": "uint256"
        },
        {
          "indexed": false,
          "internalType": "string",
          "name": "message",
          "type": "string"
        }
      ],
      "name": "NewWave",
      "type": "event"
    },
    {
      "inputs": [],
      "name": "getAllWaves",
      "outputs": [
        {
          "components": [
            {
              "internalType": "address",
              "name": "waver",
              "type": "address"
            },
            {
              "internalType": "string",
              "name": "message",
              "type": "string"
            },
            {
              "internalType": "uint256",
              "name": "timestamp",
              "type": "uint256"
            }
          ],
          "internalType": "struct WavePortal.Wave[]",
          "name": "",
          "type": "tuple[]"
        }
      ],
      "stateMutability": "view",
      "type": "function"
    },
    {
      "inputs": [],
      "name": "getTotalWaves",
      "outputs": [
        {
          "internalType": "uint256",
          "name": "",
          "type": "uint256"
        }
      ],
      "stateMutability": "view",
      "type": "function"
    },
    {
      "inputs": [
        {
          "internalType": "string",
          "name": "_message",
          "type": "string"
        }
      ],
      "name": "wave",
      "outputs": [],
      "stateMutability": "nonpayable",
      "type": "function"
    }
  ],
  "bytecode": "0x608060405234801561001057600080fd5b50610d45806100206000396000f3fe608060405234801561001057600080fd5b50600436106100415760003560e01c8063449d46c0146100465780639a2cdc0814610062578063bd43a90814610080575b600080fd5b610060600480360381019061005b9190610665565b61009e565b005b61006a61020e565b60405161007791906106c7565b60405180910390f35b610088610259565b60405161009591906108c3565b60405180910390f35b60016000808282546100b09190610914565b925050819055506100f66040518060400160405280600d81526020017f2573206861732077617665642100000000000000000000000000000000000000815250336103aa565b600160405180606001604052803373ffffffffffffffffffffffffffffffffffffffff16815260200183815260200142815250908060018154018082558091505060019003906000526020600020906003020160009091909190915060008201518160000160006101000a81548173ffffffffffffffffffffffffffffffffffffffff021916908373ffffffffffffffffffffffffffffffffffffffff16021790555060208201518160010190816101ae9190610b54565b506040820151816002015550503373ffffffffffffffffffffffffffffffffffffffff167f5f7e16dc676677766a70e9c5628aa6c54ddb8b6e5188e2ae1e1f17f1ffbea7164283604051610203929190610c70565b60405180910390a250565b60006102516040518060400160405280601c81526020017f796f752068617665206120746f74616c206f6620256420776176657300000000815250600054610446565b600054905090565b60606001805480602002602001604051908101604052809291908181526020016000905b828210156103a157838290600052602060002090600302016040518060600160405290816000820160009054906101000a900473ffffffffffffffffffffffffffffffffffffffff1673ffffffffffffffffffffffffffffffffffffffff1673ffffffffffffffffffffffffffffffffffffffff16815260200160018201805461030690610977565b80601f016020809104026020016040519081016040528092919081815260200182805461033290610977565b801561037f5780601f106103545761010080835404028352916020019161037f565b820191906000526020600020905b81548152906001019060200180831161036257829003601f168201915b505050505081526020016002820154815250508152602001906001019061027d565b50505050905090565b61044282826040516024016103c0929190610caf565b6040516020818303038152906040527f319af333000000000000000000000000000000000000000000000000000000007bffffffffffffffffffffffffffffffffffffffffffffffffffffffff19166020820180517bffffffffffffffffffffffffffffffffffffffffffffffffffffffff83818316178352505050506104e2565b5050565b6104de828260405160240161045c929190610cdf565b6040516020818303038152906040527fb60e72cc000000000000000000000000000000000000000000000000000000007bffffffffffffffffffffffffffffffffffffffffffffffffffffffff19166020820180517bffffffffffffffffffffffffffffffffffffffffffffffffffffffff83818316178352505050506104e2565b5050565b60008151905060006a636f6e736f6c652e6c6f679050602083016000808483855afa5050505050565b6000604051905090565b600080fd5b600080fd5b600080fd5b600080fd5b6000601f19601f8301169050919050565b7f4e487b7100000000000000000000000000000000000000000000000000000000600052604160045260246000fd5b61057282610529565b810181811067ffffffffffffffff821117156105915761059061053a565b5b80604052505050565b60006105a461050b565b90506105b08282610569565b919050565b600067ffffffffffffffff8211156105d0576105cf61053a565b5b6105d982610529565b9050602081019050919050565b82818337600083830152505050565b6000610608610603846105b5565b61059a565b90508281526020810184848401111561062457610623610524565b5b61062f8482856105e6565b509392505050565b600082601f83011261064c5761064b61051f565b5b813561065c8482602086016105f5565b91505092915050565b60006020828403121561067b5761067a610515565b5b600082013567ffffffffffffffff8111156106995761069861051a565b5b6106a584828501610637565b91505092915050565b6000819050919050565b6106c1816106ae565b82525050565b60006020820190506106dc60008301846106b8565b92915050565b600081519050919050565b600082825260208201905092915050565b6000819050602082019050919050565b600073ffffffffffffffffffffffffffffffffffffffff82169050919050565b60006107398261070e565b9050919050565b6107498161072e565b82525050565b600081519050919050565b600082825260208201905092915050565b60005b8381101561078957808201518184015260208101905061076e565b60008484015250505050565b60006107a08261074f565b6107aa818561075a565b93506107ba81856020860161076b565b6107c381610529565b840191505092915050565b6107d7816106ae565b82525050565b60006060830160008301516107f56000860182610740565b506020830151848203602086015261080d8282610795565b915050604083015161082260408601826107ce565b508091505092915050565b600061083983836107dd565b905092915050565b6000602082019050919050565b6000610859826106e2565b61086381856106ed565b935083602082028501610875856106fe565b8060005b858110156108b15784840389528151610892858261082d565b945061089d83610841565b925060208a01995050600181019050610879565b50829750879550505050505092915050565b600060208201905081810360008301526108dd818461084e565b905092915050565b7f4e487b7100000000000000000000000000000000000000000000000000000000600052601160045260246000fd5b600061091f826106ae565b915061092a836106ae565b9250828201905080821115610942576109416108e5565b5b92915050565b7f4e487b7100000000000000000000000000000000000000000000000000000000600052602260045260246000fd5b6000600282049050600182168061098f57607f821691505b6020821081036109a2576109a1610948565b5b50919050565b60008190508160005260206000209050919050565b60006020601f8301049050919050565b600082821b905092915050565b600060088302610a0a7fffffffffffffffffffffffffffffffffffffffffffffffffffffffffffffffff826109cd565b610a1486836109cd565b95508019841693508086168417925050509392505050565b6000819050919050565b6000610a51610a4c610a47846106ae565b610a2c565b6106ae565b9050919050565b6000819050919050565b610a6b83610a36565b610a7f610a7782610a58565b8484546109da565b825550505050565b600090565b610a94610a87565b610a9f818484610a62565b505050565b5b81811015610ac357610ab8600082610a8c565b600181019050610aa5565b5050565b601f821115610b0857610ad9816109a8565b610ae2846109bd565b81016020851015610af1578190505b610b05610afd856109bd565b830182610aa4565b50505b505050565b600082821c905092915050565b6000610b2b60001984600802610b0d565b1980831691505092915050565b6000610b448383610b1a565b9150826002028217905092915050565b610b5d8261074f565b67ffffffffffffffff811115610b7657610b7561053a565b5b610b808254610977565b610b8b828285610ac7565b600060209050601f831160018114610bbe5760008415610bac578287015190505b610bb68582610b38565b865550610c1e565b601f198416610bcc866109a8565b60005b82811015610bf457848901518255600182019150602085019450602081019050610bcf565b86831015610c115784890151610c0d601f891682610b1a565b8355505b6001600288020188555050505b505050505050565b600082825260208201905092915050565b6000610c428261074f565b610c4c8185610c26565b9350610c5c81856020860161076b565b610c6581610529565b840191505092915050565b6000604082019050610c8560008301856106b8565b8181036020830152610c978184610c37565b90509392505050565b610ca98161072e565b82525050565b60006040820190508181036000830152610cc98185610c37565b9050610cd86020830184610ca0565b9392505050565b60006040820190508181036000830152610cf98185610c37565b9050610d0860208301846106b8565b939250505056fea2646970667358221220e2d1ec3ee5508df87a7eddcc2ac10c9a5b1233d960507976882501ecb60c2b1d64736f6c63430008110033",
  "linkReferences": {},
  "deployedLinkReferences": {}
}